{
  "_format": "hh-sol-artifact-1",
  "contractName": "EncryptedERC20",
  "sourceName": "contracts/EncryptedERC20.sol",
  "abi": [
    {
      "inputs": [],
      "stateMutability": "nonpayable",
      "type": "constructor"
    },
    {
      "inputs": [],
      "name": "InvalidShortString",
      "type": "error"
    },
    {
      "inputs": [
        {
          "internalType": "string",
          "name": "str",
          "type": "string"
        }
      ],
      "name": "StringTooLong",
      "type": "error"
    },
    {
      "anonymous": false,
      "inputs": [],
      "name": "EIP712DomainChanged",
      "type": "event"
    },
    {
      "inputs": [
        {
          "internalType": "address",
          "name": "spender",
          "type": "address"
        },
        {
          "internalType": "bytes32",
          "name": "publicKey",
          "type": "bytes32"
        },
        {
          "internalType": "bytes",
          "name": "signature",
          "type": "bytes"
        }
      ],
      "name": "allowance",
      "outputs": [
        {
          "internalType": "bytes",
          "name": "",
          "type": "bytes"
        }
      ],
      "stateMutability": "view",
      "type": "function"
    },
    {
      "inputs": [
        {
          "internalType": "address",
          "name": "spender",
          "type": "address"
        },
        {
          "internalType": "bytes",
          "name": "encryptedAmount",
          "type": "bytes"
        }
      ],
      "name": "approve",
      "outputs": [],
      "stateMutability": "nonpayable",
      "type": "function"
    },
    {
      "inputs": [
        {
          "internalType": "bytes32",
          "name": "publicKey",
          "type": "bytes32"
        },
        {
          "internalType": "bytes",
          "name": "signature",
          "type": "bytes"
        }
      ],
      "name": "balanceOf",
      "outputs": [
        {
          "internalType": "bytes",
          "name": "",
          "type": "bytes"
        }
      ],
      "stateMutability": "view",
      "type": "function"
    },
    {
      "inputs": [],
      "name": "contractOwner",
      "outputs": [
        {
          "internalType": "address",
          "name": "",
          "type": "address"
        }
      ],
      "stateMutability": "view",
      "type": "function"
    },
    {
      "inputs": [],
      "name": "decimals",
      "outputs": [
        {
          "internalType": "uint8",
          "name": "",
          "type": "uint8"
        }
      ],
      "stateMutability": "view",
      "type": "function"
    },
    {
      "inputs": [],
      "name": "eip712Domain",
      "outputs": [
        {
          "internalType": "bytes1",
          "name": "fields",
          "type": "bytes1"
        },
        {
          "internalType": "string",
          "name": "name",
          "type": "string"
        },
        {
          "internalType": "string",
          "name": "version",
          "type": "string"
        },
        {
          "internalType": "uint256",
          "name": "chainId",
          "type": "uint256"
        },
        {
          "internalType": "address",
          "name": "verifyingContract",
          "type": "address"
        },
        {
          "internalType": "bytes32",
          "name": "salt",
          "type": "bytes32"
        },
        {
          "internalType": "uint256[]",
          "name": "extensions",
          "type": "uint256[]"
        }
      ],
      "stateMutability": "view",
      "type": "function"
    },
    {
      "inputs": [
        {
          "internalType": "bytes32",
          "name": "publicKey",
          "type": "bytes32"
        },
        {
          "internalType": "bytes",
          "name": "signature",
          "type": "bytes"
        }
      ],
      "name": "getTotalSupply",
      "outputs": [
        {
          "internalType": "bytes",
          "name": "",
          "type": "bytes"
        }
      ],
      "stateMutability": "view",
      "type": "function"
    },
    {
      "inputs": [
        {
          "internalType": "bytes",
          "name": "encryptedAmount",
          "type": "bytes"
        }
      ],
      "name": "mint",
      "outputs": [],
      "stateMutability": "nonpayable",
      "type": "function"
    },
    {
      "inputs": [],
      "name": "name",
      "outputs": [
        {
          "internalType": "string",
          "name": "",
          "type": "string"
        }
      ],
      "stateMutability": "view",
      "type": "function"
    },
    {
      "inputs": [],
      "name": "symbol",
      "outputs": [
        {
          "internalType": "string",
          "name": "",
          "type": "string"
        }
      ],
      "stateMutability": "view",
      "type": "function"
    },
    {
      "inputs": [
        {
          "internalType": "address",
          "name": "to",
          "type": "address"
        },
        {
          "internalType": "bytes",
          "name": "encryptedAmount",
          "type": "bytes"
        }
      ],
      "name": "transfer",
      "outputs": [],
      "stateMutability": "nonpayable",
      "type": "function"
    },
    {
      "inputs": [
        {
          "internalType": "address",
          "name": "to",
          "type": "address"
        },
        {
          "internalType": "euint32",
          "name": "amount",
          "type": "uint256"
        }
      ],
      "name": "transfer",
      "outputs": [],
      "stateMutability": "nonpayable",
      "type": "function"
    },
    {
      "inputs": [
        {
          "internalType": "address",
          "name": "from",
          "type": "address"
        },
        {
          "internalType": "address",
          "name": "to",
          "type": "address"
        },
        {
          "internalType": "euint32",
          "name": "amount",
          "type": "uint256"
        }
      ],
      "name": "transferFrom",
      "outputs": [],
      "stateMutability": "nonpayable",
      "type": "function"
    },
    {
      "inputs": [
        {
          "internalType": "address",
          "name": "from",
          "type": "address"
        },
        {
          "internalType": "address",
          "name": "to",
          "type": "address"
        },
        {
          "internalType": "bytes",
          "name": "encryptedAmount",
          "type": "bytes"
        }
      ],
      "name": "transferFrom",
      "outputs": [],
      "stateMutability": "nonpayable",
      "type": "function"
    }
  ],
  "bytecode": "0x6101606040523480156200001257600080fd5b506040518060400160405280601381526020017f417574686f72697a6174696f6e20746f6b656e000000000000000000000000008152506040518060400160405280600181526020017f31000000000000000000000000000000000000000000000000000000000000008152508181620000976000836200017a60201b90919060201c565b6101208181525050620000b56001826200017a60201b90919060201c565b6101408181525050818051906020012060e08181525050808051906020012061010081815250504660a08181525050620000f4620001d260201b60201c565b608081815250503073ffffffffffffffffffffffffffffffffffffffff1660c08173ffffffffffffffffffffffffffffffffffffffff16815250505050505033600660006101000a81548173ffffffffffffffffffffffffffffffffffffffff021916908373ffffffffffffffffffffffffffffffffffffffff1602179055506200082a565b6000602083511015620001a05762000198836200022f60201b60201c565b9050620001cc565b82620001b2836200029c60201b60201c565b6000019081620001c3919062000520565b5060ff60001b90505b92915050565b60007f8b73c3c69bb8fe3d512ecc4cf759cc79239f7b179b0ffacaa9a75d522b39400f60e0516101005146306040516020016200021495949392919062000678565b60405160208183030381529060405280519060200120905090565b600080829050601f815111156200027f57826040517f305a27a900000000000000000000000000000000000000000000000000000000815260040162000276919062000764565b60405180910390fd5b8051816200028d90620007ba565b60001c1760001b915050919050565b6000819050919050565b600081519050919050565b7f4e487b7100000000000000000000000000000000000000000000000000000000600052604160045260246000fd5b7f4e487b7100000000000000000000000000000000000000000000000000000000600052602260045260246000fd5b600060028204905060018216806200032857607f821691505b6020821081036200033e576200033d620002e0565b5b50919050565b60008190508160005260206000209050919050565b60006020601f8301049050919050565b600082821b905092915050565b600060088302620003a87fffffffffffffffffffffffffffffffffffffffffffffffffffffffffffffffff8262000369565b620003b4868362000369565b95508019841693508086168417925050509392505050565b6000819050919050565b6000819050919050565b600062000401620003fb620003f584620003cc565b620003d6565b620003cc565b9050919050565b6000819050919050565b6200041d83620003e0565b620004356200042c8262000408565b84845462000376565b825550505050565b600090565b6200044c6200043d565b6200045981848462000412565b505050565b5b8181101562000481576200047560008262000442565b6001810190506200045f565b5050565b601f821115620004d0576200049a8162000344565b620004a58462000359565b81016020851015620004b5578190505b620004cd620004c48562000359565b8301826200045e565b50505b505050565b600082821c905092915050565b6000620004f560001984600802620004d5565b1980831691505092915050565b6000620005108383620004e2565b9150826002028217905092915050565b6200052b82620002a6565b67ffffffffffffffff811115620005475762000546620002b1565b5b6200055382546200030f565b6200056082828562000485565b600060209050601f83116001811462000598576000841562000583578287015190505b6200058f858262000502565b865550620005ff565b601f198416620005a88662000344565b60005b82811015620005d257848901518255600182019150602085019450602081019050620005ab565b86831015620005f25784890151620005ee601f891682620004e2565b8355505b6001600288020188555050505b505050505050565b6000819050919050565b6200061c8162000607565b82525050565b6200062d81620003cc565b82525050565b600073ffffffffffffffffffffffffffffffffffffffff82169050919050565b6000620006608262000633565b9050919050565b620006728162000653565b82525050565b600060a0820190506200068f600083018862000611565b6200069e602083018762000611565b620006ad604083018662000611565b620006bc606083018562000622565b620006cb608083018462000667565b9695505050505050565b600082825260208201905092915050565b60005b8381101562000706578082015181840152602081019050620006e9565b60008484015250505050565b6000601f19601f8301169050919050565b60006200073082620002a6565b6200073c8185620006d5565b93506200074e818560208601620006e6565b620007598162000712565b840191505092915050565b6000602082019050818103600083015262000780818462000723565b905092915050565b600081519050919050565b6000819050602082019050919050565b6000620007b1825162000607565b80915050919050565b6000620007c78262000788565b82620007d38462000793565b9050620007e081620007a3565b9250602082101562000823576200081e7fffffffffffffffffffffffffffffffffffffffffffffffffffffffffffffffff8360200360080262000369565b831692505b5050919050565b60805160a05160c05160e05161010051610120516101405161284b620008856000396000610749015260006107150152600061183b0152600061181a0152600061114e015260006111a4015260006111cd015261284b6000f3fe608060405234801561001057600080fd5b50600436106100ea5760003560e01c80637ba0e2e71161008c57806395d89b411161006657806395d89b411461023b578063a9059cbb14610259578063b6ce514b14610275578063ce606ee0146102a5576100ea565b80637ba0e2e7146101cb57806384b0196e146101e75780638ff9e2f51461020b576100ea565b806329723511116100c85780632972351114610145578063313ce56714610161578063499726631461017f5780637b7c65c91461019b576100ea565b8063014647f4146100ef57806306fdde031461010b57806323b872dd14610129575b600080fd5b61010960048036038101906101049190611bc4565b6102c3565b005b610113610325565b6040516101209190611cb4565b60405180910390f35b610143600480360381019061013e9190611d0c565b61035e565b005b61015f600480360381019061015a9190611bc4565b61037f565b005b6101696103da565b6040516101769190611d7b565b60405180910390f35b61019960048036038101906101949190611d96565b6103df565b005b6101b560048036038101906101b09190611e40565b61043c565b6040516101c29190611ef5565b60405180910390f35b6101e560048036038101906101e09190611f17565b610570565b005b6101ef610702565b604051610202979695949392919061208a565b60405180910390f35b61022560048036038101906102209190611e40565b610804565b6040516102329190611ef5565b60405180910390f35b610243610975565b6040516102509190611cb4565b60405180910390f35b610273600480360381019061026e919061210e565b6109ae565b005b61028f600480360381019061028a919061214e565b6109bd565b60405161029c9190611ef5565b60405180910390f35b6102ad610afd565b6040516102ba91906121c2565b60405180910390f35b600033905061031f818561031a86868080601f016020809104026020016040519081016040528093929190818152602001838380828437600081840152601f19601f82011690508083019250505050505050610b23565b610b37565b50505050565b6040518060400160405280600e81526020017f506179536d61727420546f6b656e00000000000000000000000000000000000081525081565b600033905061036e848284610bbd565b610379848484610bf7565b50505050565b6103d5836103d084848080601f016020809104026020016040519081016040528093929190818152602001838380828437600081840152601f19601f82011690508083019250505050505050610b23565b6109ae565b505050565b601281565b610436848461043185858080601f016020809104026020016040519081016040528093929190818152602001838380828437600081840152601f19601f82011690508083019250505050505050610b23565b61035e565b50505050565b60608383838080601f016020809104026020016040519081016040528093929190818152602001838380828437600081840152601f19601f8201169050808301925050505050505060006104d77f051d137ae0e1fae6e3b6559fed4442b35a85a9a39789838ad5c9ea05e7da2dce846040516020016104bc9291906121dd565b60405160208183030381529060405280519060200120610d65565b905060006104e58284610d7f565b90503373ffffffffffffffffffffffffffffffffffffffff168173ffffffffffffffffffffffffffffffffffffffff1614610555576040517f08c379a000000000000000000000000000000000000000000000000000000000815260040161054c90612278565b60405180910390fd5b610563600254896000610da6565b9450505050509392505050565b600660009054906101000a900473ffffffffffffffffffffffffffffffffffffffff1673ffffffffffffffffffffffffffffffffffffffff163373ffffffffffffffffffffffffffffffffffffffff16146105ca57600080fd5b600061061983838080601f016020809104026020016040519081016040528093929190818152602001838380828437600081840152601f19601f82011690508083019250505050505050610b23565b905061068660046000600660009054906101000a900473ffffffffffffffffffffffffffffffffffffffff1673ffffffffffffffffffffffffffffffffffffffff1673ffffffffffffffffffffffffffffffffffffffff1681526020019081526020016000205482610de3565b60046000600660009054906101000a900473ffffffffffffffffffffffffffffffffffffffff1673ffffffffffffffffffffffffffffffffffffffff1673ffffffffffffffffffffffffffffffffffffffff168152602001908152602001600020819055506106f760025482610de3565b600281905550505050565b60006060806000806000606061074260007f0000000000000000000000000000000000000000000000000000000000000000610df790919063ffffffff16565b61077660017f0000000000000000000000000000000000000000000000000000000000000000610df790919063ffffffff16565b46306000801b600067ffffffffffffffff81111561079757610796612298565b5b6040519080825280602002602001820160405280156107c55781602001602082028036833780820191505090505b507f0f00000000000000000000000000000000000000000000000000000000000000959493929190965096509650965096509650965090919293949596565b60608383838080601f016020809104026020016040519081016040528093929190818152602001838380828437600081840152601f19601f82011690508083019250505050505050600061089f7f051d137ae0e1fae6e3b6559fed4442b35a85a9a39789838ad5c9ea05e7da2dce846040516020016108849291906121dd565b60405160208183030381529060405280519060200120610d65565b905060006108ad8284610d7f565b90503373ffffffffffffffffffffffffffffffffffffffff168173ffffffffffffffffffffffffffffffffffffffff161461091d576040517f08c379a000000000000000000000000000000000000000000000000000000000815260040161091490612278565b60405180910390fd5b610968600460003373ffffffffffffffffffffffffffffffffffffffff1673ffffffffffffffffffffffffffffffffffffffff16815260200190815260200160002054896000610da6565b9450505050509392505050565b6040518060400160405280600381526020017f505354000000000000000000000000000000000000000000000000000000000081525081565b6109b9338383610bf7565b5050565b60608383838080601f016020809104026020016040519081016040528093929190818152602001838380828437600081840152601f19601f820116905080830192505050505050506000610a587f051d137ae0e1fae6e3b6559fed4442b35a85a9a39789838ad5c9ea05e7da2dce84604051602001610a3d9291906121dd565b60405160208183030381529060405280519060200120610d65565b90506000610a668284610d7f565b90503373ffffffffffffffffffffffffffffffffffffffff168173ffffffffffffffffffffffffffffffffffffffff1614610ad6576040517f08c379a0000000000000000000000000000000000000000000000000000000008152600401610acd90612278565b60405180910390fd5b6000339050610aee610ae8828c610ea7565b8a610fca565b95505050505050949350505050565b600660009054906101000a900473ffffffffffffffffffffffffffffffffffffffff1681565b6000610b30826002610fde565b9050919050565b80600560008573ffffffffffffffffffffffffffffffffffffffff1673ffffffffffffffffffffffffffffffffffffffff16815260200190815260200160002060008473ffffffffffffffffffffffffffffffffffffffff1673ffffffffffffffffffffffffffffffffffffffff16815260200190815260200160002081905550505050565b6000610bc98484610ea7565b9050610bdd610bd8838361108c565b6110e0565b610bf18484610bec84866110ec565b610b37565b50505050565b610c48610c4382600460008773ffffffffffffffffffffffffffffffffffffffff1673ffffffffffffffffffffffffffffffffffffffff1681526020019081526020016000205461108c565b6110e0565b610c91600460008473ffffffffffffffffffffffffffffffffffffffff1673ffffffffffffffffffffffffffffffffffffffff1681526020019081526020016000205482610de3565b600460008473ffffffffffffffffffffffffffffffffffffffff1673ffffffffffffffffffffffffffffffffffffffff16815260200190815260200160002081905550610d1d600460008573ffffffffffffffffffffffffffffffffffffffff1673ffffffffffffffffffffffffffffffffffffffff1681526020019081526020016000205482611136565b600460008573ffffffffffffffffffffffffffffffffffffffff1673ffffffffffffffffffffffffffffffffffffffff16815260200190815260200160002081905550505050565b6000610d78610d7261114a565b83611201565b9050919050565b6000806000610d8e8585611242565b91509150610d9b81611293565b819250505092915050565b606060008414610dc157610dba84846113f9565b9050610ddc565b610dd9610dd38363ffffffff16611488565b846113f9565b90505b9392505050565b6000610def838361149c565b905092915050565b606060ff60001b8314610e1457610e0d836114e6565b9050610ea1565b818054610e20906122f6565b80601f0160208091040260200160405190810160405280929190818152602001828054610e4c906122f6565b8015610e995780601f10610e6e57610100808354040283529160200191610e99565b820191906000526020600020905b815481529060010190602001808311610e7c57829003601f168201915b505050505090505b92915050565b6000610f2e600560008573ffffffffffffffffffffffffffffffffffffffff1673ffffffffffffffffffffffffffffffffffffffff16815260200190815260200160002060008473ffffffffffffffffffffffffffffffffffffffff1673ffffffffffffffffffffffffffffffffffffffff1681526020019081526020016000205461155a565b15610fb757600560008473ffffffffffffffffffffffffffffffffffffffff1673ffffffffffffffffffffffffffffffffffffffff16815260200190815260200160002060008373ffffffffffffffffffffffffffffffffffffffff1673ffffffffffffffffffffffffffffffffffffffff168152602001908152602001600020549050610fc4565b610fc16000611488565b90505b92915050565b6060610fd683836113f9565b905092915050565b600080838360f81b604051602001610ff7929190612384565b6040516020818303038152906040529050605d73ffffffffffffffffffffffffffffffffffffffff16634b252ec8826040518263ffffffff1660e01b81526004016110429190611ef5565b602060405180830381865afa15801561105f573d6000803e3d6000fd5b505050506040513d601f19601f8201168201806040525081019061108391906123d8565b91505092915050565b60006110978361155a565b6110a8576110a56000611488565b92505b6110b18261155a565b6110c2576110bf6000611488565b91505b6110d86110d184846000611567565b600061160d565b905092915050565b6110e981611697565b50565b60006110f78361155a565b611108576111056000611488565b92505b6111118261155a565b6111225761111f6000611488565b91505b61112e8383600061174f565b905092915050565b600061114283836110ec565b905092915050565b60007f000000000000000000000000000000000000000000000000000000000000000073ffffffffffffffffffffffffffffffffffffffff163073ffffffffffffffffffffffffffffffffffffffff161480156111c657507f000000000000000000000000000000000000000000000000000000000000000046145b156111f3577f000000000000000000000000000000000000000000000000000000000000000090506111fe565b6111fb6117f5565b90505b90565b60006040517f190100000000000000000000000000000000000000000000000000000000000081528360028201528260228201526042812091505092915050565b60008060418351036112835760008060006020860151925060408601519150606086015160001a90506112778782858561188b565b9450945050505061128c565b60006002915091505b9250929050565b600060048111156112a7576112a6612405565b5b8160048111156112ba576112b9612405565b5b03156113f657600160048111156112d4576112d3612405565b5b8160048111156112e7576112e6612405565b5b03611327576040517f08c379a000000000000000000000000000000000000000000000000000000000815260040161131e90612480565b60405180910390fd5b6002600481111561133b5761133a612405565b5b81600481111561134e5761134d612405565b5b0361138e576040517f08c379a0000000000000000000000000000000000000000000000000000000008152600401611385906124ec565b60405180910390fd5b600360048111156113a2576113a1612405565b5b8160048111156113b5576113b4612405565b5b036113f5576040517f08c379a00000000000000000000000000000000000000000000000000000000081526004016113ec9061257e565b60405180910390fd5b5b50565b6060605d73ffffffffffffffffffffffffffffffffffffffff1663d6ad57cd848460001c6040518363ffffffff1660e01b815260040161143a92919061259e565b600060405180830381865afa158015611457573d6000803e3d6000fd5b505050506040513d6000823e3d601f19601f8201168201806040525081019061148091906126b9565b905092915050565b600061149582600261196d565b9050919050565b60006114a78361155a565b6114b8576114b56000611488565b92505b6114c18261155a565b6114d2576114cf6000611488565b91505b6114de838360006119f7565b905092915050565b606060006114f383611a9d565b90506000602067ffffffffffffffff81111561151257611511612298565b5b6040519080825280601f01601f1916602001820160405280156115445781602001600182028036833780820191505090505b5090508181528360208201528092505050919050565b6000808214159050919050565b600080821561157c57600160f81b9050611584565b600060f81b90505b605d73ffffffffffffffffffffffffffffffffffffffff1663694daf728686846040518463ffffffff1660e01b81526004016115c293929190612702565b602060405180830381865afa1580156115df573d6000803e3d6000fd5b505050506040513d601f19601f8201168201806040525081019061160391906123d8565b9150509392505050565b6000605d73ffffffffffffffffffffffffffffffffffffffff16634be68d20848460f81b6040518363ffffffff1660e01b815260040161164e929190612739565b602060405180830381865afa15801561166b573d6000803e3d6000fd5b505050506040513d601f19601f8201168201806040525081019061168f91906123d8565b905092915050565b6000816040516024016116aa9190612762565b6040516020818303038152906040527f4ee071a1000000000000000000000000000000000000000000000000000000007bffffffffffffffffffffffffffffffffffffffffffffffffffffffff19166020820180517bffffffffffffffffffffffffffffffffffffffffffffffffffffffff838183161783525050505090506000815190506000605d90506000808360208601845afa61174957600080fd5b50505050565b600080821561176457600160f81b905061176c565b600060f81b90505b605d73ffffffffffffffffffffffffffffffffffffffff16638c14cc218686846040518463ffffffff1660e01b81526004016117aa93929190612702565b602060405180830381865afa1580156117c7573d6000803e3d6000fd5b505050506040513d601f19601f820116820180604052508101906117eb91906123d8565b9150509392505050565b60007f8b73c3c69bb8fe3d512ecc4cf759cc79239f7b179b0ffacaa9a75d522b39400f7f00000000000000000000000000000000000000000000000000000000000000007f0000000000000000000000000000000000000000000000000000000000000000463060405160200161187095949392919061277d565b60405160208183030381529060405280519060200120905090565b6000807f7fffffffffffffffffffffffffffffff5d576e7357a4501ddfe92f46681b20a08360001c11156118c6576000600391509150611964565b6000600187878787604051600081526020016040526040516118eb94939291906127d0565b6020604051602081039080840390855afa15801561190d573d6000803e3d6000fd5b505050602060405103519050600073ffffffffffffffffffffffffffffffffffffffff168173ffffffffffffffffffffffffffffffffffffffff160361195b57600060019250925050611964565b80600092509250505b94509492505050565b6000605d73ffffffffffffffffffffffffffffffffffffffff1663e71746b8848460f81b6040518363ffffffff1660e01b81526004016119ae929190612739565b602060405180830381865afa1580156119cb573d6000803e3d6000fd5b505050506040513d601f19601f820116820180604052508101906119ef91906123d8565b905092915050565b6000808215611a0c57600160f81b9050611a14565b600060f81b90505b605d73ffffffffffffffffffffffffffffffffffffffff1663f953e4278686846040518463ffffffff1660e01b8152600401611a5293929190612702565b602060405180830381865afa158015611a6f573d6000803e3d6000fd5b505050506040513d601f19601f82011682018060405250810190611a9391906123d8565b9150509392505050565b60008060ff8360001c169050601f811115611ae4576040517fb3512b0c00000000000000000000000000000000000000000000000000000000815260040160405180910390fd5b80915050919050565b6000604051905090565b600080fd5b600080fd5b600073ffffffffffffffffffffffffffffffffffffffff82169050919050565b6000611b2c82611b01565b9050919050565b611b3c81611b21565b8114611b4757600080fd5b50565b600081359050611b5981611b33565b92915050565b600080fd5b600080fd5b600080fd5b60008083601f840112611b8457611b83611b5f565b5b8235905067ffffffffffffffff811115611ba157611ba0611b64565b5b602083019150836001820283011115611bbd57611bbc611b69565b5b9250929050565b600080600060408486031215611bdd57611bdc611af7565b5b6000611beb86828701611b4a565b935050602084013567ffffffffffffffff811115611c0c57611c0b611afc565b5b611c1886828701611b6e565b92509250509250925092565b600081519050919050565b600082825260208201905092915050565b60005b83811015611c5e578082015181840152602081019050611c43565b60008484015250505050565b6000601f19601f8301169050919050565b6000611c8682611c24565b611c908185611c2f565b9350611ca0818560208601611c40565b611ca981611c6a565b840191505092915050565b60006020820190508181036000830152611cce8184611c7b565b905092915050565b6000819050919050565b611ce981611cd6565b8114611cf457600080fd5b50565b600081359050611d0681611ce0565b92915050565b600080600060608486031215611d2557611d24611af7565b5b6000611d3386828701611b4a565b9350506020611d4486828701611b4a565b9250506040611d5586828701611cf7565b9150509250925092565b600060ff82169050919050565b611d7581611d5f565b82525050565b6000602082019050611d906000830184611d6c565b92915050565b60008060008060608587031215611db057611daf611af7565b5b6000611dbe87828801611b4a565b9450506020611dcf87828801611b4a565b935050604085013567ffffffffffffffff811115611df057611def611afc565b5b611dfc87828801611b6e565b925092505092959194509250565b6000819050919050565b611e1d81611e0a565b8114611e2857600080fd5b50565b600081359050611e3a81611e14565b92915050565b600080600060408486031215611e5957611e58611af7565b5b6000611e6786828701611e2b565b935050602084013567ffffffffffffffff811115611e8857611e87611afc565b5b611e9486828701611b6e565b92509250509250925092565b600081519050919050565b600082825260208201905092915050565b6000611ec782611ea0565b611ed18185611eab565b9350611ee1818560208601611c40565b611eea81611c6a565b840191505092915050565b60006020820190508181036000830152611f0f8184611ebc565b905092915050565b60008060208385031215611f2e57611f2d611af7565b5b600083013567ffffffffffffffff811115611f4c57611f4b611afc565b5b611f5885828601611b6e565b92509250509250929050565b60007fff0000000000000000000000000000000000000000000000000000000000000082169050919050565b611f9981611f64565b82525050565b611fa881611cd6565b82525050565b611fb781611b21565b82525050565b611fc681611e0a565b82525050565b600081519050919050565b600082825260208201905092915050565b6000819050602082019050919050565b61200181611cd6565b82525050565b60006120138383611ff8565b60208301905092915050565b6000602082019050919050565b600061203782611fcc565b6120418185611fd7565b935061204c83611fe8565b8060005b8381101561207d5781516120648882612007565b975061206f8361201f565b925050600181019050612050565b5085935050505092915050565b600060e08201905061209f600083018a611f90565b81810360208301526120b18189611c7b565b905081810360408301526120c58188611c7b565b90506120d46060830187611f9f565b6120e16080830186611fae565b6120ee60a0830185611fbd565b81810360c0830152612100818461202c565b905098975050505050505050565b6000806040838503121561212557612124611af7565b5b600061213385828601611b4a565b925050602061214485828601611cf7565b9150509250929050565b6000806000806060858703121561216857612167611af7565b5b600061217687828801611b4a565b945050602061218787828801611e2b565b935050604085013567ffffffffffffffff8111156121a8576121a7611afc565b5b6121b487828801611b6e565b925092505092959194509250565b60006020820190506121d76000830184611fae565b92915050565b60006040820190506121f26000830185611fbd565b6121ff6020830184611fbd565b9392505050565b7f454950373132207369676e657220616e64207472616e73616374696f6e20736960008201527f676e657220646f206e6f74206d61746368000000000000000000000000000000602082015250565b6000612262603183611c2f565b915061226d82612206565b604082019050919050565b6000602082019050818103600083015261229181612255565b9050919050565b7f4e487b7100000000000000000000000000000000000000000000000000000000600052604160045260246000fd5b7f4e487b7100000000000000000000000000000000000000000000000000000000600052602260045260246000fd5b6000600282049050600182168061230e57607f821691505b602082108103612321576123206122c7565b5b50919050565b600081905092915050565b600061233d82611ea0565b6123478185612327565b9350612357818560208601611c40565b80840191505092915050565b6000819050919050565b61237e61237982611f64565b612363565b82525050565b60006123908285612332565b915061239c828461236d565b6001820191508190509392505050565b6123b581611cd6565b81146123c057600080fd5b50565b6000815190506123d2816123ac565b92915050565b6000602082840312156123ee576123ed611af7565b5b60006123fc848285016123c3565b91505092915050565b7f4e487b7100000000000000000000000000000000000000000000000000000000600052602160045260246000fd5b7f45434453413a20696e76616c6964207369676e61747572650000000000000000600082015250565b600061246a601883611c2f565b915061247582612434565b602082019050919050565b600060208201905081810360008301526124998161245d565b9050919050565b7f45434453413a20696e76616c6964207369676e6174757265206c656e67746800600082015250565b60006124d6601f83611c2f565b91506124e1826124a0565b602082019050919050565b60006020820190508181036000830152612505816124c9565b9050919050565b7f45434453413a20696e76616c6964207369676e6174757265202773272076616c60008201527f7565000000000000000000000000000000000000000000000000000000000000602082015250565b6000612568602283611c2f565b91506125738261250c565b604082019050919050565b600060208201905081810360008301526125978161255b565b9050919050565b60006040820190506125b36000830185611f9f565b6125c06020830184611f9f565b9392505050565b600080fd5b6125d582611c6a565b810181811067ffffffffffffffff821117156125f4576125f3612298565b5b80604052505050565b6000612607611aed565b905061261382826125cc565b919050565b600067ffffffffffffffff82111561263357612632612298565b5b61263c82611c6a565b9050602081019050919050565b600061265c61265784612618565b6125fd565b905082815260208101848484011115612678576126776125c7565b5b612683848285611c40565b509392505050565b600082601f8301126126a05761269f611b5f565b5b81516126b0848260208601612649565b91505092915050565b6000602082840312156126cf576126ce611af7565b5b600082015167ffffffffffffffff8111156126ed576126ec611afc565b5b6126f98482850161268b565b91505092915050565b60006060820190506127176000830186611f9f565b6127246020830185611f9f565b6127316040830184611f90565b949350505050565b600060408201905061274e6000830185611f9f565b61275b6020830184611f90565b9392505050565b60006020820190506127776000830184611f9f565b92915050565b600060a0820190506127926000830188611fbd565b61279f6020830187611fbd565b6127ac6040830186611fbd565b6127b96060830185611f9f565b6127c66080830184611fae565b9695505050505050565b60006080820190506127e56000830187611fbd565b6127f26020830186611d6c565b6127ff6040830185611fbd565b61280c6060830184611fbd565b9594505050505056fea264697066735822122087fb548ecdad8507e9cd2abe718010d4728ed9e81b7594a98bbeceeae5de138d64736f6c63430008130033",
  "linkReferences": {},
  "deployedLinkReferences": {}
}