{
  "_format": "hh-sol-artifact-1",
  "contractName": "Escrow",
  "sourceName": "contracts/escrow.sol",
  "abi": [
    {
      "inputs": [
        {
          "internalType": "uint96",
          "name": "_feePercent",
          "type": "uint96"
        },
        {
          "internalType": "uint96",
          "name": "_agentFeePercent",
          "type": "uint96"
        },
        {
          "internalType": "uint64",
          "name": "_cancelLockDays",
          "type": "uint64"
        }
      ],
      "stateMutability": "nonpayable",
      "type": "constructor"
    },
    {
      "anonymous": false,
      "inputs": [
        {
          "indexed": true,
          "internalType": "address",
          "name": "executor",
          "type": "address"
        },
        {
          "indexed": false,
          "internalType": "uint256",
          "name": "poolId",
          "type": "uint256"
        }
      ],
      "name": "ApproveCancel",
      "type": "event"
    },
    {
      "anonymous": false,
      "inputs": [
        {
          "indexed": true,
          "internalType": "address",
          "name": "executor",
          "type": "address"
        },
        {
          "indexed": true,
          "internalType": "address",
          "name": "sender",
          "type": "address"
        },
        {
          "indexed": false,
          "internalType": "uint256",
          "name": "poolId",
          "type": "uint256"
        },
        {
          "indexed": false,
          "internalType": "uint256",
          "name": "amount",
          "type": "uint256"
        }
      ],
      "name": "Cancel",
      "type": "event"
    },
    {
      "anonymous": false,
      "inputs": [
        {
          "indexed": true,
          "internalType": "address",
          "name": "sender",
          "type": "address"
        },
        {
          "indexed": true,
          "internalType": "address",
          "name": "recipient",
          "type": "address"
        },
        {
          "indexed": true,
          "internalType": "address",
          "name": "agent",
          "type": "address"
        },
        {
          "indexed": false,
          "internalType": "address",
          "name": "token",
          "type": "address"
        },
        {
          "indexed": false,
          "internalType": "uint256",
          "name": "amount",
          "type": "uint256"
        },
        {
          "indexed": false,
          "internalType": "uint256",
          "name": "createdAt",
          "type": "uint256"
        },
        {
          "indexed": false,
          "internalType": "uint256",
          "name": "poolId",
          "type": "uint256"
        }
      ],
      "name": "Deposit",
      "type": "event"
    },
    {
      "anonymous": false,
      "inputs": [
        {
          "indexed": true,
          "internalType": "address",
          "name": "previousOwner",
          "type": "address"
        },
        {
          "indexed": true,
          "internalType": "address",
          "name": "newOwner",
          "type": "address"
        }
      ],
      "name": "OwnershipTransferred",
      "type": "event"
    },
    {
      "anonymous": false,
      "inputs": [
        {
          "indexed": true,
          "internalType": "address",
          "name": "recipient",
          "type": "address"
        },
        {
          "indexed": true,
          "internalType": "address",
          "name": "agent",
          "type": "address"
        },
        {
          "indexed": false,
          "internalType": "uint256",
          "name": "poolId",
          "type": "uint256"
        },
        {
          "indexed": false,
          "internalType": "uint256",
          "name": "amount",
          "type": "uint256"
        }
      ],
      "name": "Release",
      "type": "event"
    },
    {
      "inputs": [],
      "name": "agentFeePercent",
      "outputs": [
        {
          "internalType": "uint96",
          "name": "",
          "type": "uint96"
        }
      ],
      "stateMutability": "view",
      "type": "function"
    },
    {
      "inputs": [
        {
          "internalType": "uint256",
          "name": "_poolId",
          "type": "uint256"
        }
      ],
      "name": "approveCancel",
      "outputs": [
        {
          "internalType": "bool",
          "name": "",
          "type": "bool"
        }
      ],
      "stateMutability": "nonpayable",
      "type": "function"
    },
    {
      "inputs": [
        {
          "internalType": "uint256",
          "name": "_poolId",
          "type": "uint256"
        }
      ],
      "name": "cancel",
      "outputs": [
        {
          "internalType": "bool",
          "name": "",
          "type": "bool"
        }
      ],
      "stateMutability": "nonpayable",
      "type": "function"
    },
    {
      "inputs": [],
      "name": "cancelLockTime",
      "outputs": [
        {
          "internalType": "uint64",
          "name": "",
          "type": "uint64"
        }
      ],
      "stateMutability": "view",
      "type": "function"
    },
    {
      "inputs": [
        {
          "internalType": "uint256",
          "name": "_poolId",
          "type": "uint256"
        }
      ],
      "name": "cancelable",
      "outputs": [
        {
          "internalType": "bool",
          "name": "",
          "type": "bool"
        }
      ],
      "stateMutability": "view",
      "type": "function"
    },
    {
      "inputs": [
        {
          "internalType": "contract IERC20",
          "name": "_token",
          "type": "address"
        },
        {
          "internalType": "address",
          "name": "_recipient",
          "type": "address"
        },
        {
          "internalType": "address",
          "name": "_agent",
          "type": "address"
        },
        {
          "internalType": "uint256",
          "name": "_amount",
          "type": "uint256"
        }
      ],
      "name": "deposit",
      "outputs": [
        {
          "internalType": "uint256",
          "name": "",
          "type": "uint256"
        }
      ],
      "stateMutability": "nonpayable",
      "type": "function"
    },
    {
      "inputs": [
        {
          "internalType": "address",
          "name": "_recipient",
          "type": "address"
        },
        {
          "internalType": "address",
          "name": "_agent",
          "type": "address"
        }
      ],
      "name": "depositByETH",
      "outputs": [
        {
          "internalType": "uint256",
          "name": "",
          "type": "uint256"
        }
      ],
      "stateMutability": "payable",
      "type": "function"
    },
    {
      "inputs": [],
      "name": "feePercent",
      "outputs": [
        {
          "internalType": "uint96",
          "name": "",
          "type": "uint96"
        }
      ],
      "stateMutability": "view",
      "type": "function"
    },
    {
      "inputs": [],
      "name": "owner",
      "outputs": [
        {
          "internalType": "address",
          "name": "",
          "type": "address"
        }
      ],
      "stateMutability": "view",
      "type": "function"
    },
    {
      "inputs": [],
      "name": "poolCount",
      "outputs": [
        {
          "internalType": "uint256",
          "name": "",
          "type": "uint256"
        }
      ],
      "stateMutability": "view",
      "type": "function"
    },
    {
      "inputs": [
        {
          "internalType": "uint256",
          "name": "",
          "type": "uint256"
        }
      ],
      "name": "pools",
      "outputs": [
        {
          "internalType": "address",
          "name": "token",
          "type": "address"
        },
        {
          "internalType": "address",
          "name": "sender",
          "type": "address"
        },
        {
          "internalType": "address",
          "name": "recipient",
          "type": "address"
        },
        {
          "internalType": "address",
          "name": "agent",
          "type": "address"
        },
        {
          "internalType": "uint64",
          "name": "createdAt",
          "type": "uint64"
        },
        {
          "internalType": "bool",
          "name": "isReleased",
          "type": "bool"
        },
        {
          "internalType": "uint256",
          "name": "amount",
          "type": "uint256"
        }
      ],
      "stateMutability": "view",
      "type": "function"
    },
    {
      "inputs": [
        {
          "internalType": "uint256",
          "name": "",
          "type": "uint256"
        }
      ],
      "name": "refundStatusList",
      "outputs": [
        {
          "internalType": "bool",
          "name": "sender",
          "type": "bool"
        },
        {
          "internalType": "bool",
          "name": "recipient",
          "type": "bool"
        },
        {
          "internalType": "bool",
          "name": "agent",
          "type": "bool"
        }
      ],
      "stateMutability": "view",
      "type": "function"
    },
    {
      "inputs": [
        {
          "internalType": "uint256",
          "name": "_poolId",
          "type": "uint256"
        }
      ],
      "name": "release",
      "outputs": [
        {
          "internalType": "bool",
          "name": "",
          "type": "bool"
        }
      ],
      "stateMutability": "nonpayable",
      "type": "function"
    },
    {
      "inputs": [],
      "name": "renounceOwnership",
      "outputs": [],
      "stateMutability": "nonpayable",
      "type": "function"
    },
    {
      "inputs": [
        {
          "internalType": "address",
          "name": "newOwner",
          "type": "address"
        }
      ],
      "name": "transferOwnership",
      "outputs": [],
      "stateMutability": "nonpayable",
      "type": "function"
    }
  ],
  "bytecode": "0x60e06040523480156200001157600080fd5b5060405162003bc938038062003bc98339818101604052810190620000379190620002f1565b620000576200004b6200019260201b60201c565b6200019a60201b60201c565b60018081905550612710836bffffffffffffffffffffffff1610620000b3576040517f08c379a0000000000000000000000000000000000000000000000000000000008152600401620000aa90620003ae565b60405180910390fd5b612710826bffffffffffffffffffffffff161062000108576040517f08c379a0000000000000000000000000000000000000000000000000000000008152600401620000ff9062000420565b60405180910390fd5b826bffffffffffffffffffffffff166080816bffffffffffffffffffffffff1681525050816bffffffffffffffffffffffff1660a0816bffffffffffffffffffffffff1681525050610e1060188262000162919062000471565b6200016e919062000471565b67ffffffffffffffff1660c08167ffffffffffffffff1681525050505050620004b7565b600033905090565b60008060009054906101000a900473ffffffffffffffffffffffffffffffffffffffff169050816000806101000a81548173ffffffffffffffffffffffffffffffffffffffff021916908373ffffffffffffffffffffffffffffffffffffffff1602179055508173ffffffffffffffffffffffffffffffffffffffff168173ffffffffffffffffffffffffffffffffffffffff167f8be0079c531659141344cd1fd0a4f28419497f9722a3daafe3b4186f6b6457e060405160405180910390a35050565b600080fd5b60006bffffffffffffffffffffffff82169050919050565b620002868162000263565b81146200029257600080fd5b50565b600081519050620002a6816200027b565b92915050565b600067ffffffffffffffff82169050919050565b620002cb81620002ac565b8114620002d757600080fd5b50565b600081519050620002eb81620002c0565b92915050565b6000806000606084860312156200030d576200030c6200025e565b5b60006200031d8682870162000295565b9350506020620003308682870162000295565b92505060406200034386828701620002da565b9150509250925092565b600082825260208201905092915050565b7f66656550657263656e7420696e76616c69640000000000000000000000000000600082015250565b6000620003966012836200034d565b9150620003a3826200035e565b602082019050919050565b60006020820190508181036000830152620003c98162000387565b9050919050565b7f4167656e7446656550657263656e7420696e76616c6964000000000000000000600082015250565b6000620004086017836200034d565b91506200041582620003d0565b602082019050919050565b600060208201905081810360008301526200043b81620003f9565b9050919050565b7f4e487b7100000000000000000000000000000000000000000000000000000000600052601160045260246000fd5b60006200047e82620002ac565b91506200048b83620002ac565b92508282026200049b81620002ac565b9150808214620004b057620004af62000442565b5b5092915050565b60805160a05160c0516136c66200050360003960008181610f18015281816112530152611a4401526000818161087a015261122f01526000818161082b015261175001526136c66000f3fe6080604052600436106100e85760003560e01c80637fd6f15c1161008a578063ac4afa3811610059578063ac4afa3814610311578063f2fde38b14610354578063f525cb681461037d578063f7fe69e9146103a8576100e8565b80637fd6f15c1461024e5780638c233fec146102795780638cf51873146102b65780638da5cb5b146102e6576100e8565b80635da152bb116100c65780635da152bb146101a457806368b45e3c146101cf5780636b926c4f146101fa578063715018a614610237576100e8565b80630284c3f5146100ed57806337bdc99b1461012a57806340e58ee514610167575b600080fd5b3480156100f957600080fd5b50610114600480360381019061010f919061276e565b6103e7565b60405161012191906127e4565b60405180910390f35b34801561013657600080fd5b50610151600480360381019061014c91906127ff565b610518565b60405161015e9190612847565b60405180910390f35b34801561017357600080fd5b5061018e600480360381019061018991906127ff565b610c2b565b60405161019b9190612847565b60405180910390f35b3480156101b057600080fd5b506101b961122d565b6040516101c69190612889565b60405180910390f35b3480156101db57600080fd5b506101e4611251565b6040516101f191906128c7565b60405180910390f35b34801561020657600080fd5b50610221600480360381019061021c91906127ff565b611275565b60405161022e9190612847565b60405180910390f35b34801561024357600080fd5b5061024c61173a565b005b34801561025a57600080fd5b5061026361174e565b6040516102709190612889565b60405180910390f35b34801561028557600080fd5b506102a0600480360381019061029b91906127ff565b611772565b6040516102ad9190612847565b60405180910390f35b6102d060048036038101906102cb91906128e2565b611ab8565b6040516102dd91906127e4565b60405180910390f35b3480156102f257600080fd5b506102fb611bbb565b6040516103089190612931565b60405180910390f35b34801561031d57600080fd5b50610338600480360381019061033391906127ff565b611be4565b60405161034b979695949392919061294c565b60405180910390f35b34801561036057600080fd5b5061037b600480360381019061037691906129bb565b611cc7565b005b34801561038957600080fd5b50610392611d4a565b60405161039f91906127e4565b60405180910390f35b3480156103b457600080fd5b506103cf60048036038101906103ca91906127ff565b611d50565b6040516103de939291906129e8565b60405180910390f35b600080821161042b576040517f08c379a000000000000000000000000000000000000000000000000000000000815260040161042290612a7c565b60405180910390fd5b600073ffffffffffffffffffffffffffffffffffffffff168473ffffffffffffffffffffffffffffffffffffffff16141580156104955750600073ffffffffffffffffffffffffffffffffffffffff168373ffffffffffffffffffffffffffffffffffffffff1614155b6104d4576040517f08c379a00000000000000000000000000000000000000000000000000000000081526004016104cb90612ae8565b60405180910390fd5b6105013330848873ffffffffffffffffffffffffffffffffffffffff16611da1909392919063ffffffff16565b61050e8533868686611e2a565b9050949350505050565b6000813373ffffffffffffffffffffffffffffffffffffffff166003600083815260200190815260200160002060030160009054906101000a900473ffffffffffffffffffffffffffffffffffffffff1673ffffffffffffffffffffffffffffffffffffffff16146105bf576040517f08c379a00000000000000000000000000000000000000000000000000000000081526004016105b690612b54565b60405180910390fd5b6105c76121da565b6000600360008581526020019081526020016000206040518060e00160405290816000820160009054906101000a900473ffffffffffffffffffffffffffffffffffffffff1673ffffffffffffffffffffffffffffffffffffffff1673ffffffffffffffffffffffffffffffffffffffff1681526020016001820160009054906101000a900473ffffffffffffffffffffffffffffffffffffffff1673ffffffffffffffffffffffffffffffffffffffff1673ffffffffffffffffffffffffffffffffffffffff1681526020016002820160009054906101000a900473ffffffffffffffffffffffffffffffffffffffff1673ffffffffffffffffffffffffffffffffffffffff1673ffffffffffffffffffffffffffffffffffffffff1681526020016003820160009054906101000a900473ffffffffffffffffffffffffffffffffffffffff1673ffffffffffffffffffffffffffffffffffffffff1673ffffffffffffffffffffffffffffffffffffffff1681526020016003820160149054906101000a900467ffffffffffffffff1667ffffffffffffffff1667ffffffffffffffff16815260200160038201601c9054906101000a900460ff16151515158152602001600482015481525050905060008160c00151116107df576040517f08c379a00000000000000000000000000000000000000000000000000000000081526004016107d690612bc0565b60405180910390fd5b8060a0015115610824576040517f08c379a000000000000000000000000000000000000000000000000000000000815260040161081b90612c2c565b60405180910390fd5b60006127107f00000000000000000000000000000000000000000000000000000000000000006bffffffffffffffffffffffff168360c001516108679190612c7b565b6108719190612cec565b905060006127107f00000000000000000000000000000000000000000000000000000000000000006bffffffffffffffffffffffff168460c001516108b69190612c7b565b6108c09190612cec565b9050600073ffffffffffffffffffffffffffffffffffffffff16836000015173ffffffffffffffffffffffffffffffffffffffff16146109b557610947836040015182848660c001516109139190612d1d565b61091d9190612d1d565b856000015173ffffffffffffffffffffffffffffffffffffffff166122299092919063ffffffff16565b61097d610952611bbb565b83856000015173ffffffffffffffffffffffffffffffffffffffff166122299092919063ffffffff16565b6109b0836060015182856000015173ffffffffffffffffffffffffffffffffffffffff166122299092919063ffffffff16565b610b78565b6000836040015173ffffffffffffffffffffffffffffffffffffffff1682848660c001516109e39190612d1d565b6109ed9190612d1d565b6040516109f990612d82565b60006040518083038185875af1925050503d8060008114610a36576040519150601f19603f3d011682016040523d82523d6000602084013e610a3b565b606091505b505090506000610a49611bbb565b73ffffffffffffffffffffffffffffffffffffffff1684604051610a6c90612d82565b60006040518083038185875af1925050503d8060008114610aa9576040519150601f19603f3d011682016040523d82523d6000602084013e610aae565b606091505b505090506000856060015173ffffffffffffffffffffffffffffffffffffffff1684604051610adc90612d82565b60006040518083038185875af1925050503d8060008114610b19576040519150601f19603f3d011682016040523d82523d6000602084013e610b1e565b606091505b50509050828015610b2c5750815b8015610b355750805b610b74576040517f08c379a0000000000000000000000000000000000000000000000000000000008152600401610b6b90612de3565b60405180910390fd5b5050505b600160036000888152602001908152602001600020600301601c6101000a81548160ff0219169083151502179055503373ffffffffffffffffffffffffffffffffffffffff16836040015173ffffffffffffffffffffffffffffffffffffffff167f10b55f01b1cfe0feeb7d144f66162661602d8e73256499b6d8342aac37ff0679888660c00151604051610c0e929190612e03565b60405180910390a360019450505050610c256122af565b50919050565b6000610c356121da565b6002548210610c79576040517f08c379a0000000000000000000000000000000000000000000000000000000008152600401610c7090612e78565b60405180910390fd5b6000600460008481526020019081526020016000206040518060600160405290816000820160009054906101000a900460ff161515151581526020016000820160019054906101000a900460ff161515151581526020016000820160029054906101000a900460ff1615151515815250509050806020015180610cfd575080604001515b610d3c576040517f08c379a0000000000000000000000000000000000000000000000000000000008152600401610d3390612ee4565b60405180910390fd5b6000600360008581526020019081526020016000206040518060e00160405290816000820160009054906101000a900473ffffffffffffffffffffffffffffffffffffffff1673ffffffffffffffffffffffffffffffffffffffff1673ffffffffffffffffffffffffffffffffffffffff1681526020016001820160009054906101000a900473ffffffffffffffffffffffffffffffffffffffff1673ffffffffffffffffffffffffffffffffffffffff1673ffffffffffffffffffffffffffffffffffffffff1681526020016002820160009054906101000a900473ffffffffffffffffffffffffffffffffffffffff1673ffffffffffffffffffffffffffffffffffffffff1673ffffffffffffffffffffffffffffffffffffffff1681526020016003820160009054906101000a900473ffffffffffffffffffffffffffffffffffffffff1673ffffffffffffffffffffffffffffffffffffffff1673ffffffffffffffffffffffffffffffffffffffff1681526020016003820160149054906101000a900467ffffffffffffffff1667ffffffffffffffff1667ffffffffffffffff16815260200160038201601c9054906101000a900460ff1615151515815260200160048201548152505090508160200151610f92577f00000000000000000000000000000000000000000000000000000000000000008160800151610f469190612f04565b67ffffffffffffffff164211610f91576040517f08c379a0000000000000000000000000000000000000000000000000000000008152600401610f8890612f8c565b60405180910390fd5b5b806020015173ffffffffffffffffffffffffffffffffffffffff163373ffffffffffffffffffffffffffffffffffffffff161480610fd1575081600001515b611010576040517f08c379a000000000000000000000000000000000000000000000000000000000815260040161100790612ff8565b60405180910390fd5b60008160c0015111801561102657508060a00151155b611065576040517f08c379a000000000000000000000000000000000000000000000000000000000815260040161105c90612bc0565b60405180910390fd5b600073ffffffffffffffffffffffffffffffffffffffff16816000015173ffffffffffffffffffffffffffffffffffffffff16146110d9576110d481602001518260c00151836000015173ffffffffffffffffffffffffffffffffffffffff166122299092919063ffffffff16565b61118f565b6000816020015173ffffffffffffffffffffffffffffffffffffffff168260c0015160405161110790612d82565b60006040518083038185875af1925050503d8060008114611144576040519150601f19603f3d011682016040523d82523d6000602084013e611149565b606091505b505090508061118d576040517f08c379a000000000000000000000000000000000000000000000000000000000815260040161118490612de3565b60405180910390fd5b505b60006003600086815260200190815260200160002060040181905550806020015173ffffffffffffffffffffffffffffffffffffffff163373ffffffffffffffffffffffffffffffffffffffff167f8f3655be12f02f55f4ea0fadda68acdc9d092919943c3484e9043e2f1b2f5bbc868460c00151604051611212929190612e03565b60405180910390a36001925050506112286122af565b919050565b7f000000000000000000000000000000000000000000000000000000000000000081565b7f000000000000000000000000000000000000000000000000000000000000000081565b600060025482106112bb576040517f08c379a00000000000000000000000000000000000000000000000000000000081526004016112b290612e78565b60405180910390fd5b6000600360008481526020019081526020016000206040518060e00160405290816000820160009054906101000a900473ffffffffffffffffffffffffffffffffffffffff1673ffffffffffffffffffffffffffffffffffffffff1673ffffffffffffffffffffffffffffffffffffffff1681526020016001820160009054906101000a900473ffffffffffffffffffffffffffffffffffffffff1673ffffffffffffffffffffffffffffffffffffffff1673ffffffffffffffffffffffffffffffffffffffff1681526020016002820160009054906101000a900473ffffffffffffffffffffffffffffffffffffffff1673ffffffffffffffffffffffffffffffffffffffff1673ffffffffffffffffffffffffffffffffffffffff1681526020016003820160009054906101000a900473ffffffffffffffffffffffffffffffffffffffff1673ffffffffffffffffffffffffffffffffffffffff1673ffffffffffffffffffffffffffffffffffffffff1681526020016003820160149054906101000a900467ffffffffffffffff1667ffffffffffffffff1667ffffffffffffffff16815260200160038201601c9054906101000a900460ff1615151515815260200160048201548152505090506000600460008581526020019081526020016000209050816040015173ffffffffffffffffffffffffffffffffffffffff163373ffffffffffffffffffffffffffffffffffffffff160361154e578060000160019054906101000a900460ff161561152c576040517f08c379a000000000000000000000000000000000000000000000000000000000815260040161152390613064565b60405180910390fd5b60018160000160016101000a81548160ff0219169083151502179055506116e1565b816020015173ffffffffffffffffffffffffffffffffffffffff163373ffffffffffffffffffffffffffffffffffffffff16036115f9578060000160009054906101000a900460ff16156115d7576040517f08c379a00000000000000000000000000000000000000000000000000000000081526004016115ce90613064565b60405180910390fd5b60018160000160006101000a81548160ff0219169083151502179055506116e0565b816060015173ffffffffffffffffffffffffffffffffffffffff163373ffffffffffffffffffffffffffffffffffffffff16036116a4578060000160029054906101000a900460ff1615611682576040517f08c379a000000000000000000000000000000000000000000000000000000000815260040161167990613064565b60405180910390fd5b60018160000160026101000a81548160ff0219169083151502179055506116df565b6040517f08c379a00000000000000000000000000000000000000000000000000000000081526004016116d6906130d0565b60405180910390fd5b5b5b3373ffffffffffffffffffffffffffffffffffffffff167fa53c68aaaae3607ebf873cec0f86ccf8f16a055626f49bc850b30304ff07ef038560405161172791906127e4565b60405180910390a2600192505050919050565b6117426122b8565b61174c6000612336565b565b7f000000000000000000000000000000000000000000000000000000000000000081565b600060025482106117865760009050611ab3565b6000600460008481526020019081526020016000206040518060600160405290816000820160009054906101000a900460ff161515151581526020016000820160019054906101000a900460ff161515151581526020016000820160029054906101000a900460ff1615151515815250509050806020015115801561180d57508060400151155b1561181c576000915050611ab3565b6000600360008581526020019081526020016000206040518060e00160405290816000820160009054906101000a900473ffffffffffffffffffffffffffffffffffffffff1673ffffffffffffffffffffffffffffffffffffffff1673ffffffffffffffffffffffffffffffffffffffff1681526020016001820160009054906101000a900473ffffffffffffffffffffffffffffffffffffffff1673ffffffffffffffffffffffffffffffffffffffff1673ffffffffffffffffffffffffffffffffffffffff1681526020016002820160009054906101000a900473ffffffffffffffffffffffffffffffffffffffff1673ffffffffffffffffffffffffffffffffffffffff1673ffffffffffffffffffffffffffffffffffffffff1681526020016003820160009054906101000a900473ffffffffffffffffffffffffffffffffffffffff1673ffffffffffffffffffffffffffffffffffffffff1673ffffffffffffffffffffffffffffffffffffffff1681526020016003820160149054906101000a900467ffffffffffffffff1667ffffffffffffffff1667ffffffffffffffff16815260200160038201601c9054906101000a900460ff161515151581526020016004820154815250509050806020015173ffffffffffffffffffffffffffffffffffffffff163373ffffffffffffffffffffffffffffffffffffffff1614158015611a2f57508160000151155b80611a8157508160200151158015611a8057507f00000000000000000000000000000000000000000000000000000000000000008160800151611a729190612f04565b67ffffffffffffffff164211155b5b80611a9c575060008160c001511480611a9b57508060a001515b5b15611aac57600092505050611ab3565b6001925050505b919050565b6000803411611afc576040517f08c379a0000000000000000000000000000000000000000000000000000000008152600401611af390612a7c565b60405180910390fd5b600073ffffffffffffffffffffffffffffffffffffffff168373ffffffffffffffffffffffffffffffffffffffff1614158015611b665750600073ffffffffffffffffffffffffffffffffffffffff168273ffffffffffffffffffffffffffffffffffffffff1614155b611ba5576040517f08c379a0000000000000000000000000000000000000000000000000000000008152600401611b9c90612ae8565b60405180910390fd5b611bb3600033858534611e2a565b905092915050565b60008060009054906101000a900473ffffffffffffffffffffffffffffffffffffffff16905090565b60036020528060005260406000206000915090508060000160009054906101000a900473ffffffffffffffffffffffffffffffffffffffff16908060010160009054906101000a900473ffffffffffffffffffffffffffffffffffffffff16908060020160009054906101000a900473ffffffffffffffffffffffffffffffffffffffff16908060030160009054906101000a900473ffffffffffffffffffffffffffffffffffffffff16908060030160149054906101000a900467ffffffffffffffff169080600301601c9054906101000a900460ff16908060040154905087565b611ccf6122b8565b600073ffffffffffffffffffffffffffffffffffffffff168173ffffffffffffffffffffffffffffffffffffffff1603611d3e576040517f08c379a0000000000000000000000000000000000000000000000000000000008152600401611d3590613162565b60405180910390fd5b611d4781612336565b50565b60025481565b60046020528060005260406000206000915090508060000160009054906101000a900460ff16908060000160019054906101000a900460ff16908060000160029054906101000a900460ff16905083565b611e24846323b872dd60e01b858585604051602401611dc293929190613182565b604051602081830303815290604052907bffffffffffffffffffffffffffffffffffffffffffffffffffffffff19166020820180517bffffffffffffffffffffffffffffffffffffffffffffffffffffffff83818316178352505050506123fa565b50505050565b60008373ffffffffffffffffffffffffffffffffffffffff168573ffffffffffffffffffffffffffffffffffffffff1614158015611e9457508273ffffffffffffffffffffffffffffffffffffffff168573ffffffffffffffffffffffffffffffffffffffff1614155b8015611ecc57508273ffffffffffffffffffffffffffffffffffffffff168473ffffffffffffffffffffffffffffffffffffffff1614155b611f0b576040517f08c379a0000000000000000000000000000000000000000000000000000000008152600401611f0290613205565b60405180910390fd5b600060025490506040518060e001604052808873ffffffffffffffffffffffffffffffffffffffff1681526020018773ffffffffffffffffffffffffffffffffffffffff1681526020018673ffffffffffffffffffffffffffffffffffffffff1681526020018573ffffffffffffffffffffffffffffffffffffffff1681526020014267ffffffffffffffff168152602001600015158152602001848152506003600083815260200190815260200160002060008201518160000160006101000a81548173ffffffffffffffffffffffffffffffffffffffff021916908373ffffffffffffffffffffffffffffffffffffffff16021790555060208201518160010160006101000a81548173ffffffffffffffffffffffffffffffffffffffff021916908373ffffffffffffffffffffffffffffffffffffffff16021790555060408201518160020160006101000a81548173ffffffffffffffffffffffffffffffffffffffff021916908373ffffffffffffffffffffffffffffffffffffffff16021790555060608201518160030160006101000a81548173ffffffffffffffffffffffffffffffffffffffff021916908373ffffffffffffffffffffffffffffffffffffffff16021790555060808201518160030160146101000a81548167ffffffffffffffff021916908367ffffffffffffffff16021790555060a082015181600301601c6101000a81548160ff02191690831515021790555060c082015181600401559050508373ffffffffffffffffffffffffffffffffffffffff168573ffffffffffffffffffffffffffffffffffffffff168773ffffffffffffffffffffffffffffffffffffffff167fc1b57ce6b8a9044ecd63b204e4b7d92cb3c9bd8bd9eb74fb58d969f7002f45938a8742876040516121af9493929190613225565b60405180910390a46002600081546121c69061326a565b919050819055508091505095945050505050565b60026001540361221f576040517f08c379a0000000000000000000000000000000000000000000000000000000008152600401612216906132fe565b60405180910390fd5b6002600181905550565b6122aa8363a9059cbb60e01b848460405160240161224892919061331e565b604051602081830303815290604052907bffffffffffffffffffffffffffffffffffffffffffffffffffffffff19166020820180517bffffffffffffffffffffffffffffffffffffffffffffffffffffffff83818316178352505050506123fa565b505050565b60018081905550565b6122c06124c2565b73ffffffffffffffffffffffffffffffffffffffff166122de611bbb565b73ffffffffffffffffffffffffffffffffffffffff1614612334576040517f08c379a000000000000000000000000000000000000000000000000000000000815260040161232b90613393565b60405180910390fd5b565b60008060009054906101000a900473ffffffffffffffffffffffffffffffffffffffff169050816000806101000a81548173ffffffffffffffffffffffffffffffffffffffff021916908373ffffffffffffffffffffffffffffffffffffffff1602179055508173ffffffffffffffffffffffffffffffffffffffff168173ffffffffffffffffffffffffffffffffffffffff167f8be0079c531659141344cd1fd0a4f28419497f9722a3daafe3b4186f6b6457e060405160405180910390a35050565b600061245c826040518060400160405280602081526020017f5361666545524332303a206c6f772d6c6576656c2063616c6c206661696c65648152508573ffffffffffffffffffffffffffffffffffffffff166124ca9092919063ffffffff16565b905060008151148061247e57508080602001905181019061247d91906133df565b5b6124bd576040517f08c379a00000000000000000000000000000000000000000000000000000000081526004016124b49061347e565b60405180910390fd5b505050565b600033905090565b60606124d984846000856124e2565b90509392505050565b606082471015612527576040517f08c379a000000000000000000000000000000000000000000000000000000000815260040161251e90613510565b60405180910390fd5b6000808673ffffffffffffffffffffffffffffffffffffffff1685876040516125509190613596565b60006040518083038185875af1925050503d806000811461258d576040519150601f19603f3d011682016040523d82523d6000602084013e612592565b606091505b50915091506125a3878383876125af565b92505050949350505050565b60608315612611576000835103612609576125c985612624565b612608576040517f08c379a00000000000000000000000000000000000000000000000000000000081526004016125ff906135f9565b60405180910390fd5b5b82905061261c565b61261b8383612647565b5b949350505050565b6000808273ffffffffffffffffffffffffffffffffffffffff163b119050919050565b60008251111561265a5781518083602001fd5b806040517f08c379a000000000000000000000000000000000000000000000000000000000815260040161268e919061366e565b60405180910390fd5b600080fd5b600073ffffffffffffffffffffffffffffffffffffffff82169050919050565b60006126c78261269c565b9050919050565b60006126d9826126bc565b9050919050565b6126e9816126ce565b81146126f457600080fd5b50565b600081359050612706816126e0565b92915050565b612715816126bc565b811461272057600080fd5b50565b6000813590506127328161270c565b92915050565b6000819050919050565b61274b81612738565b811461275657600080fd5b50565b60008135905061276881612742565b92915050565b6000806000806080858703121561278857612787612697565b5b6000612796878288016126f7565b94505060206127a787828801612723565b93505060406127b887828801612723565b92505060606127c987828801612759565b91505092959194509250565b6127de81612738565b82525050565b60006020820190506127f960008301846127d5565b92915050565b60006020828403121561281557612814612697565b5b600061282384828501612759565b91505092915050565b60008115159050919050565b6128418161282c565b82525050565b600060208201905061285c6000830184612838565b92915050565b60006bffffffffffffffffffffffff82169050919050565b61288381612862565b82525050565b600060208201905061289e600083018461287a565b92915050565b600067ffffffffffffffff82169050919050565b6128c1816128a4565b82525050565b60006020820190506128dc60008301846128b8565b92915050565b600080604083850312156128f9576128f8612697565b5b600061290785828601612723565b925050602061291885828601612723565b9150509250929050565b61292b816126bc565b82525050565b60006020820190506129466000830184612922565b92915050565b600060e082019050612961600083018a612922565b61296e6020830189612922565b61297b6040830188612922565b6129886060830187612922565b61299560808301866128b8565b6129a260a0830185612838565b6129af60c08301846127d5565b98975050505050505050565b6000602082840312156129d1576129d0612697565b5b60006129df84828501612723565b91505092915050565b60006060820190506129fd6000830186612838565b612a0a6020830185612838565b612a176040830184612838565b949350505050565b600082825260208201905092915050565b7f616d6f756e7420696e76616c6964000000000000000000000000000000000000600082015250565b6000612a66600e83612a1f565b9150612a7182612a30565b602082019050919050565b60006020820190508181036000830152612a9581612a59565b9050919050565b7f6164647265737320696e76616c69640000000000000000000000000000000000600082015250565b6000612ad2600f83612a1f565b9150612add82612a9c565b602082019050919050565b60006020820190508181036000830152612b0181612ac5565b9050919050565b7f6e6f74206167656e740000000000000000000000000000000000000000000000600082015250565b6000612b3e600983612a1f565b9150612b4982612b08565b602082019050919050565b60006020820190508181036000830152612b6d81612b31565b9050919050565b7f6e6f206d6f6e657920696e20706f6f6c00000000000000000000000000000000600082015250565b6000612baa601083612a1f565b9150612bb582612b74565b602082019050919050565b60006020820190508181036000830152612bd981612b9d565b9050919050565b7f616c72656164792072656c656173656400000000000000000000000000000000600082015250565b6000612c16601083612a1f565b9150612c2182612be0565b602082019050919050565b60006020820190508181036000830152612c4581612c09565b9050919050565b7f4e487b7100000000000000000000000000000000000000000000000000000000600052601160045260246000fd5b6000612c8682612738565b9150612c9183612738565b9250828202612c9f81612738565b91508282048414831517612cb657612cb5612c4c565b5b5092915050565b7f4e487b7100000000000000000000000000000000000000000000000000000000600052601260045260246000fd5b6000612cf782612738565b9150612d0283612738565b925082612d1257612d11612cbd565b5b828204905092915050565b6000612d2882612738565b9150612d3383612738565b9250828203905081811115612d4b57612d4a612c4c565b5b92915050565b600081905092915050565b50565b6000612d6c600083612d51565b9150612d7782612d5c565b600082019050919050565b6000612d8d82612d5f565b9150819050919050565b7f4661696c656420746f2073656e64204574686572000000000000000000000000600082015250565b6000612dcd601483612a1f565b9150612dd882612d97565b602082019050919050565b60006020820190508181036000830152612dfc81612dc0565b9050919050565b6000604082019050612e1860008301856127d5565b612e2560208301846127d5565b9392505050565b7f706f6f6c496420696e76616c6964000000000000000000000000000000000000600082015250565b6000612e62600e83612a1f565b9150612e6d82612e2c565b602082019050919050565b60006020820190508181036000830152612e9181612e55565b9050919050565b7f63616e27742063616e63656c0000000000000000000000000000000000000000600082015250565b6000612ece600c83612a1f565b9150612ed982612e98565b602082019050919050565b60006020820190508181036000830152612efd81612ec1565b9050919050565b6000612f0f826128a4565b9150612f1a836128a4565b9250828201905067ffffffffffffffff811115612f3a57612f39612c4c565b5b92915050565b7f647572696e672063616e63656c4c6f636b000000000000000000000000000000600082015250565b6000612f76601183612a1f565b9150612f8182612f40565b602082019050919050565b60006020820190508181036000830152612fa581612f69565b9050919050565b7f73656e646572206469646e277420617070726f76650000000000000000000000600082015250565b6000612fe2601583612a1f565b9150612fed82612fac565b602082019050919050565b6000602082019050818103600083015261301181612fd5565b9050919050565b7f616c726561647920646f6e650000000000000000000000000000000000000000600082015250565b600061304e600c83612a1f565b915061305982613018565b602082019050919050565b6000602082019050818103600083015261307d81613041565b9050919050565b7f6e6f207065726d697373696f6e00000000000000000000000000000000000000600082015250565b60006130ba600d83612a1f565b91506130c582613084565b602082019050919050565b600060208201905081810360008301526130e9816130ad565b9050919050565b7f4f776e61626c653a206e6577206f776e657220697320746865207a65726f206160008201527f6464726573730000000000000000000000000000000000000000000000000000602082015250565b600061314c602683612a1f565b9150613157826130f0565b604082019050919050565b6000602082019050818103600083015261317b8161313f565b9050919050565b60006060820190506131976000830186612922565b6131a46020830185612922565b6131b160408301846127d5565b949350505050565b7f6164647265737320696e76616c69643a2073616d650000000000000000000000600082015250565b60006131ef601583612a1f565b91506131fa826131b9565b602082019050919050565b6000602082019050818103600083015261321e816131e2565b9050919050565b600060808201905061323a6000830187612922565b61324760208301866127d5565b61325460408301856127d5565b61326160608301846127d5565b95945050505050565b600061327582612738565b91507fffffffffffffffffffffffffffffffffffffffffffffffffffffffffffffffff82036132a7576132a6612c4c565b5b600182019050919050565b7f5265656e7472616e637947756172643a207265656e7472616e742063616c6c00600082015250565b60006132e8601f83612a1f565b91506132f3826132b2565b602082019050919050565b60006020820190508181036000830152613317816132db565b9050919050565b60006040820190506133336000830185612922565b61334060208301846127d5565b9392505050565b7f4f776e61626c653a2063616c6c6572206973206e6f7420746865206f776e6572600082015250565b600061337d602083612a1f565b915061338882613347565b602082019050919050565b600060208201905081810360008301526133ac81613370565b9050919050565b6133bc8161282c565b81146133c757600080fd5b50565b6000815190506133d9816133b3565b92915050565b6000602082840312156133f5576133f4612697565b5b6000613403848285016133ca565b91505092915050565b7f5361666545524332303a204552433230206f7065726174696f6e20646964206e60008201527f6f74207375636365656400000000000000000000000000000000000000000000602082015250565b6000613468602a83612a1f565b91506134738261340c565b604082019050919050565b600060208201905081810360008301526134978161345b565b9050919050565b7f416464726573733a20696e73756666696369656e742062616c616e636520666f60008201527f722063616c6c0000000000000000000000000000000000000000000000000000602082015250565b60006134fa602683612a1f565b91506135058261349e565b604082019050919050565b60006020820190508181036000830152613529816134ed565b9050919050565b600081519050919050565b60005b8381101561355957808201518184015260208101905061353e565b60008484015250505050565b600061357082613530565b61357a8185612d51565b935061358a81856020860161353b565b80840191505092915050565b60006135a28284613565565b915081905092915050565b7f416464726573733a2063616c6c20746f206e6f6e2d636f6e7472616374000000600082015250565b60006135e3601d83612a1f565b91506135ee826135ad565b602082019050919050565b60006020820190508181036000830152613612816135d6565b9050919050565b600081519050919050565b6000601f19601f8301169050919050565b600061364082613619565b61364a8185612a1f565b935061365a81856020860161353b565b61366381613624565b840191505092915050565b600060208201905081810360008301526136888184613635565b90509291505056fea264697066735822122059bf903291807a12daff4cc72844c800a6315d23d4596926fd4beb78a0e4df5b64736f6c63430008130033",
  "linkReferences": {},
  "deployedLinkReferences": {}
}