{
  "_format": "hh-sol-artifact-1",
  "contractName": "Decrypt",
  "sourceName": "contracts/Decrypt.sol",
  "abi": [
    {
      "inputs": [],
      "name": "decryptStore",
      "outputs": [],
      "stateMutability": "nonpayable",
      "type": "function"
    },
    {
      "inputs": [],
      "name": "decryptView",
      "outputs": [
        {
          "internalType": "uint32",
          "name": "",
          "type": "uint32"
        }
      ],
      "stateMutability": "view",
      "type": "function"
    },
    {
      "inputs": [],
      "name": "reveal",
      "outputs": [
        {
          "internalType": "uint32",
          "name": "",
          "type": "uint32"
        }
      ],
      "stateMutability": "view",
      "type": "function"
    },
    {
      "inputs": [
        {
          "internalType": "bytes",
          "name": "encryptedValue",
          "type": "bytes"
        }
      ],
      "name": "store",
      "outputs": [],
      "stateMutability": "nonpayable",
      "type": "function"
    },
    {
      "inputs": [],
      "name": "testValue",
      "outputs": [
        {
          "internalType": "euint32",
          "name": "",
          "type": "uint256"
        }
      ],
      "stateMutability": "view",
      "type": "function"
    }
  ],
  "bytecode": "0x608060405234801561001057600080fd5b50610664806100206000396000f3fe608060405234801561001057600080fd5b50600436106100575760003560e01c80631dc0afe01461005c5780632f59d16b1461007a5780638af5de7214610084578063a475b5dd146100a2578063b374012b146100c0575b600080fd5b6100646100dc565b6040516100719190610311565b60405180910390f35b6100826100eb565b005b61008c610115565b6040516100999190610371565b60405180910390f35b6100aa61011b565b6040516100b79190610311565b60405180910390f35b6100da60048036038101906100d591906103fb565b610131565b005b60006100e6610188565b905090565b6100f3610188565b600160006101000a81548163ffffffff021916908363ffffffff160217905550565b60005481565b600160009054906101000a900463ffffffff1681565b61017e82828080601f016020809104026020016040519081016040528093929190818152602001838380828437600081840152601f19601f8201169050808301925050505050505061019a565b6000819055505050565b60006101956000546101ae565b905090565b60006101a78260026101c0565b9050919050565b60006101b98261026e565b9050919050565b600080838360f81b6040516020016101d9929190610506565b6040516020818303038152906040529050605d73ffffffffffffffffffffffffffffffffffffffff16634b252ec8826040518263ffffffff1660e01b81526004016102249190610589565b602060405180830381865afa158015610241573d6000803e3d6000fd5b505050506040513d601f19601f8201168201806040525081019061026591906105d7565b91505092915050565b6000605d73ffffffffffffffffffffffffffffffffffffffff16635a4ee440836040518263ffffffff1660e01b81526004016102aa9190610613565b602060405180830381865afa1580156102c7573d6000803e3d6000fd5b505050506040513d601f19601f820116820180604052508101906102eb91906105d7565b9050919050565b600063ffffffff82169050919050565b61030b816102f2565b82525050565b60006020820190506103266000830184610302565b92915050565b6000819050919050565b6000819050919050565b600061035b6103566103518461032c565b610336565b61032c565b9050919050565b61036b81610340565b82525050565b60006020820190506103866000830184610362565b92915050565b600080fd5b600080fd5b600080fd5b600080fd5b600080fd5b60008083601f8401126103bb576103ba610396565b5b8235905067ffffffffffffffff8111156103d8576103d761039b565b5b6020830191508360018202830111156103f4576103f36103a0565b5b9250929050565b600080602083850312156104125761041161038c565b5b600083013567ffffffffffffffff8111156104305761042f610391565b5b61043c858286016103a5565b92509250509250929050565b600081519050919050565b600081905092915050565b60005b8381101561047c578082015181840152602081019050610461565b60008484015250505050565b600061049382610448565b61049d8185610453565b93506104ad81856020860161045e565b80840191505092915050565b60007fff0000000000000000000000000000000000000000000000000000000000000082169050919050565b6000819050919050565b6105006104fb826104b9565b6104e5565b82525050565b60006105128285610488565b915061051e82846104ef565b6001820191508190509392505050565b600082825260208201905092915050565b6000601f19601f8301169050919050565b600061055b82610448565b610565818561052e565b935061057581856020860161045e565b61057e8161053f565b840191505092915050565b600060208201905081810360008301526105a38184610550565b905092915050565b6105b48161032c565b81146105bf57600080fd5b50565b6000815190506105d1816105ab565b92915050565b6000602082840312156105ed576105ec61038c565b5b60006105fb848285016105c2565b91505092915050565b61060d8161032c565b82525050565b60006020820190506106286000830184610604565b9291505056fea264697066735822122056321086487f1dd8e96c73d27e82c59b4f57ee3451d16e9004247e3131f32d2664736f6c63430008130033",
  "linkReferences": {},
  "deployedLinkReferences": {}
}